{
  "_format": "hh-sol-artifact-1",
  "contractName": "FestivalVault",
  "sourceName": "contracts/FestivalVault.sol",
  "abi": [
    {
      "inputs": [
        {
          "internalType": "address",
          "name": "_usdt",
          "type": "address"
        },
        {
          "internalType": "address",
          "name": "_token",
          "type": "address"
        },
        {
          "internalType": "uint256",
          "name": "_start",
          "type": "uint256"
        },
        {
          "internalType": "uint256",
          "name": "_end",
          "type": "uint256"
        },
        {
          "internalType": "address",
          "name": "_owner",
          "type": "address"
        }
      ],
      "stateMutability": "nonpayable",
      "type": "constructor"
    },
    {
      "inputs": [],
      "name": "InsufficientBalance",
      "type": "error"
    },
    {
      "inputs": [],
      "name": "InvalidAmount",
      "type": "error"
    },
    {
      "inputs": [
        {
          "internalType": "address",
          "name": "owner",
          "type": "address"
        }
      ],
      "name": "OwnableInvalidOwner",
      "type": "error"
    },
    {
      "inputs": [
        {
          "internalType": "address",
          "name": "account",
          "type": "address"
        }
      ],
      "name": "OwnableUnauthorizedAccount",
      "type": "error"
    },
    {
      "inputs": [],
      "name": "RedemptionNotOpen",
      "type": "error"
    },
    {
      "inputs": [
        {
          "internalType": "address",
          "name": "token",
          "type": "address"
        }
      ],
      "name": "SafeERC20FailedOperation",
      "type": "error"
    },
    {
      "inputs": [],
      "name": "TransferFailed",
      "type": "error"
    },
    {
      "anonymous": false,
      "inputs": [
        {
          "indexed": true,
          "internalType": "address",
          "name": "user",
          "type": "address"
        },
        {
          "indexed": false,
          "internalType": "uint256",
          "name": "usdtAmount",
          "type": "uint256"
        },
        {
          "indexed": false,
          "internalType": "uint256",
          "name": "tokenAmount",
          "type": "uint256"
        }
      ],
      "name": "Deposited",
      "type": "event"
    },
    {
      "anonymous": false,
      "inputs": [
        {
          "indexed": true,
          "internalType": "address",
          "name": "previousOwner",
          "type": "address"
        },
        {
          "indexed": true,
          "internalType": "address",
          "name": "newOwner",
          "type": "address"
        }
      ],
      "name": "OwnershipTransferred",
      "type": "event"
    },
    {
      "anonymous": false,
      "inputs": [
        {
          "indexed": false,
          "internalType": "bool",
          "name": "open",
          "type": "bool"
        }
      ],
      "name": "RedemptionStatusChanged",
      "type": "event"
    },
    {
      "anonymous": false,
      "inputs": [
        {
          "indexed": true,
          "internalType": "address",
          "name": "user",
          "type": "address"
        },
        {
          "indexed": false,
          "internalType": "uint256",
          "name": "tokenAmount",
          "type": "uint256"
        },
        {
          "indexed": false,
          "internalType": "uint256",
          "name": "usdtAmount",
          "type": "uint256"
        }
      ],
      "name": "Withdrawn",
      "type": "event"
    },
    {
      "inputs": [
        {
          "internalType": "uint256",
          "name": "usdtAmount",
          "type": "uint256"
        }
      ],
      "name": "deposit",
      "outputs": [],
      "stateMutability": "nonpayable",
      "type": "function"
    },
    {
      "inputs": [
        {
          "internalType": "address",
          "name": "",
          "type": "address"
        }
      ],
      "name": "escrowedUSDT",
      "outputs": [
        {
          "internalType": "uint256",
          "name": "",
          "type": "uint256"
        }
      ],
      "stateMutability": "view",
      "type": "function"
    },
    {
      "inputs": [],
      "name": "festivalEnd",
      "outputs": [
        {
          "internalType": "uint256",
          "name": "",
          "type": "uint256"
        }
      ],
      "stateMutability": "view",
      "type": "function"
    },
    {
      "inputs": [],
      "name": "festivalStart",
      "outputs": [
        {
          "internalType": "uint256",
          "name": "",
          "type": "uint256"
        }
      ],
      "stateMutability": "view",
      "type": "function"
    },
    {
      "inputs": [],
      "name": "owner",
      "outputs": [
        {
          "internalType": "address",
          "name": "",
          "type": "address"
        }
      ],
      "stateMutability": "view",
      "type": "function"
    },
    {
      "inputs": [],
      "name": "redemptionOpen",
      "outputs": [
        {
          "internalType": "bool",
          "name": "",
          "type": "bool"
        }
      ],
      "stateMutability": "view",
      "type": "function"
    },
    {
      "inputs": [],
      "name": "renounceOwnership",
      "outputs": [],
      "stateMutability": "nonpayable",
      "type": "function"
    },
    {
      "inputs": [
        {
          "internalType": "bool",
          "name": "open",
          "type": "bool"
        }
      ],
      "name": "setRedemptionOpen",
      "outputs": [],
      "stateMutability": "nonpayable",
      "type": "function"
    },
    {
      "inputs": [],
      "name": "token",
      "outputs": [
        {
          "internalType": "contract FestivalToken",
          "name": "",
          "type": "address"
        }
      ],
      "stateMutability": "view",
      "type": "function"
    },
    {
      "inputs": [
        {
          "internalType": "address",
          "name": "newOwner",
          "type": "address"
        }
      ],
      "name": "transferOwnership",
      "outputs": [],
      "stateMutability": "nonpayable",
      "type": "function"
    },
    {
      "inputs": [],
      "name": "usdt",
      "outputs": [
        {
          "internalType": "contract IERC20",
          "name": "",
          "type": "address"
        }
      ],
      "stateMutability": "view",
      "type": "function"
    },
    {
      "inputs": [
        {
          "internalType": "uint256",
          "name": "tokenAmount",
          "type": "uint256"
        }
      ],
      "name": "withdraw",
      "outputs": [],
      "stateMutability": "nonpayable",
      "type": "function"
    }
  ],
  "bytecode": "0x61010060405234801561001157600080fd5b50604051610a66380380610a6683398101604081905261003091610106565b806001600160a01b03811661005f57604051631e4fbdf760e01b81526000600482015260240160405180910390fd5b6100688161009a565b50506001600160a01b039384166080529190921660a05260c09190915260e0526000805460ff60a01b1916905561015d565b600080546001600160a01b038381166001600160a01b0319831681178455604051919092169283917f8be0079c531659141344cd1fd0a4f28419497f9722a3daafe3b4186f6b6457e09190a35050565b80516001600160a01b038116811461010157600080fd5b919050565b600080600080600060a0868803121561011e57600080fd5b610127866100ea565b9450610135602087016100ea565b93506040860151925060608601519150610151608087016100ea565b90509295509295909350565b60805160a05160c05160e0516108ad6101b96000396000818161014501526102630152600061016c0152600081816102090152818161032701526104c101526000818161010601528181610398015261044301526108ad6000f3fe608060405234801561001057600080fd5b50600436106100b45760003560e01c8063800b434411610071578063800b4344146101965780638da5cb5b146101ba578063b6b55f25146101cb578063d6a2a4bc146101de578063f2fde38b146101f1578063fc0c546a1461020457600080fd5b806307d0a357146100b95780632e1a7d4d146100ec5780632f48ab7d1461010157806337eb1b33146101405780636d76306714610167578063715018a61461018e575b600080fd5b6100d96100c7366004610791565b60016020526000908152604090205481565b6040519081526020015b60405180910390f35b6100ff6100fa3660046107c1565b61022b565b005b6101287f000000000000000000000000000000000000000000000000000000000000000081565b6040516001600160a01b0390911681526020016100e3565b6100d97f000000000000000000000000000000000000000000000000000000000000000081565b6100d97f000000000000000000000000000000000000000000000000000000000000000081565b6100ff610401565b6000546101aa90600160a01b900460ff1681565b60405190151581526020016100e3565b6000546001600160a01b0316610128565b6100ff6101d93660046107c1565b610415565b6100ff6101ec3660046107da565b61055d565b6100ff6101ff366004610791565b6105bd565b6101287f000000000000000000000000000000000000000000000000000000000000000081565b8060000361024c5760405163162908e360e11b815260040160405180910390fd5b600054600160a01b900460ff1615801561028557507f000000000000000000000000000000000000000000000000000000000000000042105b156102a35760405163a46967c760e01b815260040160405180910390fd5b60006102b464e8d4a5100083610812565b336000908152600160205260409020549091508111156102e757604051631e9acf1760e31b815260040160405180910390fd5b3360009081526001602052604081208054839290610306908490610834565b9091555050604051632770a7eb60e21b8152336004820152602481018390527f00000000000000000000000000000000000000000000000000000000000000006001600160a01b031690639dc29fac90604401600060405180830381600087803b15801561037357600080fd5b505af1158015610387573d6000803e3d6000fd5b506103c19250506001600160a01b037f00000000000000000000000000000000000000000000000000000000000000001690503383610600565b604080518381526020810183905233917f92ccf450a286a957af52509bc1c9939d1a6a481783e142e41e2499f0bb66ebc691015b60405180910390a25050565b610409610664565b6104136000610691565b565b806000036104365760405163162908e360e11b815260040160405180910390fd5b61046b6001600160a01b037f0000000000000000000000000000000000000000000000000000000000000000163330846106e1565b600061047c64e8d4a510008361084d565b336000908152600160205260408120805492935084929091906104a0908490610864565b90915550506040516340c10f1960e01b8152336004820152602481018290527f00000000000000000000000000000000000000000000000000000000000000006001600160a01b0316906340c10f1990604401600060405180830381600087803b15801561050d57600080fd5b505af1158015610521573d6000803e3d6000fd5b505060408051858152602081018590523393507f73a19dd210f1a7f902193214c0ee91dd35ee5b4d920cba8d519eca65a7b488ca9250016103f5565b610565610664565b60008054821515600160a01b0260ff60a01b199091161790556040517f2c0a5f5ab0ba371221bb3612c2d2f90d36566279309f526000c5b354efd1b065906105b290831515815260200190565b60405180910390a150565b6105c5610664565b6001600160a01b0381166105f457604051631e4fbdf760e01b8152600060048201526024015b60405180910390fd5b6105fd81610691565b50565b6040516001600160a01b0383811660248301526044820183905261065f91859182169063a9059cbb906064015b604051602081830303815290604052915060e01b6020820180516001600160e01b038381831617835250505050610720565b505050565b6000546001600160a01b031633146104135760405163118cdaa760e01b81523360048201526024016105eb565b600080546001600160a01b038381166001600160a01b0319831681178455604051919092169283917f8be0079c531659141344cd1fd0a4f28419497f9722a3daafe3b4186f6b6457e09190a35050565b6040516001600160a01b03848116602483015283811660448301526064820183905261071a9186918216906323b872dd9060840161062d565b50505050565b600080602060008451602086016000885af180610743576040513d6000823e3d81fd5b50506000513d9150811561075b578060011415610768565b6001600160a01b0384163b155b1561071a57604051635274afe760e01b81526001600160a01b03851660048201526024016105eb565b6000602082840312156107a357600080fd5b81356001600160a01b03811681146107ba57600080fd5b9392505050565b6000602082840312156107d357600080fd5b5035919050565b6000602082840312156107ec57600080fd5b813580151581146107ba57600080fd5b634e487b7160e01b600052601160045260246000fd5b60008261082f57634e487b7160e01b600052601260045260246000fd5b500490565b81810381811115610847576108476107fc565b92915050565b8082028115828204841417610847576108476107fc565b80820180821115610847576108476107fc56fea264697066735822122059a08d32bd3b54ccf54e1328dd3a1724eb991e4d9683018d4fd50bd5301c133c64736f6c63430008140033",
  "linkReferences": {},
  "deployedLinkReferences": {}
}